{
  "address": "0xa85EffB2658CFd81e0B1AaD4f2364CdBCd89F3a1",
  "abi": [
    {
      "inputs": [],
      "name": "DAI",
      "outputs": [
        {
          "internalType": "address",
          "name": "",
          "type": "address"
        }
      ],
      "stateMutability": "view",
      "type": "function"
    },
    {
      "inputs": [],
      "name": "USDC",
      "outputs": [
        {
          "internalType": "address",
          "name": "",
          "type": "address"
        }
      ],
      "stateMutability": "view",
      "type": "function"
    },
    {
      "inputs": [],
      "name": "collectAllFees",
      "outputs": [
        {
          "internalType": "uint256",
          "name": "amount0",
          "type": "uint256"
        },
        {
          "internalType": "uint256",
          "name": "amount1",
          "type": "uint256"
        }
      ],
      "stateMutability": "nonpayable",
      "type": "function"
    },
    {
      "inputs": [
        {
          "internalType": "uint128",
          "name": "liquidity",
          "type": "uint128"
        }
      ],
      "name": "decreaseLiquidity",
      "outputs": [
        {
          "internalType": "uint256",
          "name": "amount0",
          "type": "uint256"
        },
        {
          "internalType": "uint256",
          "name": "amount1",
          "type": "uint256"
        }
      ],
      "stateMutability": "nonpayable",
      "type": "function"
    },
    {
      "inputs": [
        {
          "internalType": "uint256",
          "name": "",
          "type": "uint256"
        }
      ],
      "name": "deposits",
      "outputs": [
        {
          "internalType": "address",
          "name": "owner",
          "type": "address"
        },
        {
          "internalType": "uint128",
          "name": "liquidity",
          "type": "uint128"
        },
        {
          "internalType": "address",
          "name": "token0",
          "type": "address"
        },
        {
          "internalType": "address",
          "name": "token1",
          "type": "address"
        }
      ],
      "stateMutability": "view",
      "type": "function"
    },
    {
      "inputs": [
        {
          "internalType": "uint256",
          "name": "_tokenId",
          "type": "uint256"
        }
      ],
      "name": "getLiquidity",
      "outputs": [
        {
          "internalType": "uint128",
          "name": "",
          "type": "uint128"
        }
      ],
      "stateMutability": "view",
      "type": "function"
    },
    {
      "inputs": [
        {
          "internalType": "uint256",
          "name": "amountAdd0",
          "type": "uint256"
        },
        {
          "internalType": "uint256",
          "name": "amountAdd1",
          "type": "uint256"
        }
      ],
      "name": "increaseLiquidityCurrentRange",
      "outputs": [
        {
          "internalType": "uint128",
          "name": "liquidity",
          "type": "uint128"
        },
        {
          "internalType": "uint256",
          "name": "amount0",
          "type": "uint256"
        },
        {
          "internalType": "uint256",
          "name": "amount1",
          "type": "uint256"
        }
      ],
      "stateMutability": "nonpayable",
      "type": "function"
    },
    {
      "inputs": [],
      "name": "mintNewPosition",
      "outputs": [
        {
          "internalType": "uint256",
          "name": "_tokenId",
          "type": "uint256"
        },
        {
          "internalType": "uint128",
          "name": "liquidity",
          "type": "uint128"
        },
        {
          "internalType": "uint256",
          "name": "amount0",
          "type": "uint256"
        },
        {
          "internalType": "uint256",
          "name": "amount1",
          "type": "uint256"
        }
      ],
      "stateMutability": "nonpayable",
      "type": "function"
    },
    {
      "inputs": [],
      "name": "nonfungiblePositionManager",
      "outputs": [
        {
          "internalType": "contract INonfungiblePositionManager",
          "name": "",
          "type": "address"
        }
      ],
      "stateMutability": "view",
      "type": "function"
    },
    {
      "inputs": [
        {
          "internalType": "address",
          "name": "operator",
          "type": "address"
        },
        {
          "internalType": "address",
          "name": "",
          "type": "address"
        },
        {
          "internalType": "uint256",
          "name": "_tokenId",
          "type": "uint256"
        },
        {
          "internalType": "bytes",
          "name": "",
          "type": "bytes"
        }
      ],
      "name": "onERC721Received",
      "outputs": [
        {
          "internalType": "bytes4",
          "name": "",
          "type": "bytes4"
        }
      ],
      "stateMutability": "nonpayable",
      "type": "function"
    },
    {
      "inputs": [],
      "name": "poolFee",
      "outputs": [
        {
          "internalType": "uint24",
          "name": "",
          "type": "uint24"
        }
      ],
      "stateMutability": "view",
      "type": "function"
    },
    {
      "inputs": [],
      "name": "tokenId",
      "outputs": [
        {
          "internalType": "uint256",
          "name": "",
          "type": "uint256"
        }
      ],
      "stateMutability": "view",
      "type": "function"
    }
  ],
  "transactionHash": "0x3e88003f821701c17513695f89d673b75d961d46432798bbced0a7479bf432ad",
  "args": [],
  "numDeployments": 1,
  "solcInputHash": "18368dee261a46a94cdbf9bc79e23877",
  "bytecode": "0x6080604052600080546001600160a01b03191673c36442b4a4522e871399cd717abdd847ab11fe8817905534801561003657600080fd5b5061178c806100466000396000f3fe608060405234801561001057600080fd5b50600436106100d45760003560e01c806389a3027111610081578063b44a27221161005b578063b44a2722146101d4578063da406491146101dc578063e0bab4c4146101ef576100d4565b806389a302711461017c578063951583c314610191578063b02c43d0146101b1576100d4565b8063306d9c61116100b2578063306d9c611461012c578063558954c914610144578063686f2c9014610166576100d4565b8063089fe6aa146100d9578063150b7a02146100f757806317d70f7c14610117575b600080fd5b6100e16101f7565b6040516100ee91906116e1565b60405180910390f35b61010a610105366004611237565b6101fc565b6040516100ee9190611507565b61011f610233565b6040516100ee91906116f1565b610134610239565b6040516100ee94939291906116fa565b61015761015236600461137f565b610492565b6040516100ee939291906116c0565b61016e6106a4565b6040516100ee92919061171e565b6101846107f2565b6040516100ee91906114bf565b6101a461019f36600461132a565b61080a565b6040516100ee91906116ac565b6101c46101bf36600461132a565b6108a1565b6040516100ee94939291906114d3565b6101846108e2565b61016e6101ea3660046112d1565b6108f1565b610184610a1f565b606481565b60006102088685610a37565b507f150b7a020000000000000000000000000000000000000000000000000000000095945050505050565b60025481565b6000805481908190819068056bc75e2d63100000906305f5e1009061027d90736b175474e89094c44da98b954eedeac495271d0f906001600160a01b031684610c6b565b6000546102a99073a0b86991c6218b36c1d19d4a2e9eb0ce3606eb48906001600160a01b031683610c6b565b6040805161016081018252736b175474e89094c44da98b954eedeac495271d0f815273a0b86991c6218b36c1d19d4a2e9eb0ce3606eb486020820152606481830152620d89e7196060820152620d89e8608082015260a0810184905260c08101839052600060e08201819052610100820181905230610120830152426101408301525491517f8831645600000000000000000000000000000000000000000000000000000000815290916001600160a01b0316906388316456906103719084906004016115fe565b608060405180830381600087803b15801561038b57600080fd5b505af115801561039f573d6000803e3d6000fd5b505050506040513d601f19601f820116820180604052508101906103c39190611342565b929950909750955093506103d73388610a37565b82851015610430576000805461040c91736b175474e89094c44da98b954eedeac495271d0f916001600160a01b031690610c6b565b84830361042e736b175474e89094c44da98b954eedeac495271d0f3383610ded565b505b8184101561048957600080546104659173a0b86991c6218b36c1d19d4a2e9eb0ce3606eb48916001600160a01b031690610c6b565b83820361048773a0b86991c6218b36c1d19d4a2e9eb0ce3606eb483383610ded565b505b50505090919293565b60008060006104b7736b175474e89094c44da98b954eedeac495271d0f333088610f68565b6104d773a0b86991c6218b36c1d19d4a2e9eb0ce3606eb48333087610f68565b60005461050390736b175474e89094c44da98b954eedeac495271d0f906001600160a01b031687610c6b565b60005461052f9073a0b86991c6218b36c1d19d4a2e9eb0ce3606eb48906001600160a01b031686610c6b565b6040805160c081018252600254815260208101879052808201869052600060608201819052608082018190524260a08301525491517f219f5d1700000000000000000000000000000000000000000000000000000000815290916001600160a01b03169063219f5d17906105a79084906004016115ba565b606060405180830381600087803b1580156105c157600080fd5b505af11580156105d5573d6000803e3d6000fd5b505050506040513d601f19601f820116820180604052508101906105f991906112f4565b60408051808201909152600981527f6c6971756964697479000000000000000000000000000000000000000000000060208201529296509094509250610648906001600160801b0386166110f3565b610672604051806040016040528060088152602001670616d6f756e7420360c41b815250846110f3565b61069c60405180604001604052806008815260200167616d6f756e74203160c01b815250836110f3565b509250925092565b6040805160808101825260025481523060208201526001600160801b0381830181905260608201526000805492517ffc6f786500000000000000000000000000000000000000000000000000000000815290928392916001600160a01b039091169063fc6f78659061071a908490600401611534565b6040805180830381600087803b15801561073357600080fd5b505af1158015610747573d6000803e3d6000fd5b505050506040513d601f19601f8201168201806040525081019061076b91906113a0565b60408051808201909152600581527f4665652030000000000000000000000000000000000000000000000000000000602082015291945092506107ae90846110f3565b6107ed6040518060400160405280600581526020017f4665652031000000000000000000000000000000000000000000000000000000815250836110f3565b509091565b73a0b86991c6218b36c1d19d4a2e9eb0ce3606eb4881565b6000805460405163133f757160e31b815282916001600160a01b0316906399fbab889061083b9086906004016116f1565b6101806040518083038186803b15801561085457600080fd5b505afa158015610868573d6000803e3d6000fd5b505050506040513d601f19601f8201168201806040525081019061088c91906113c3565b50929b5050505050505050505050505b919050565b600160208190526000918252604090912080549181015460028201546003909201546001600160a01b03938416936001600160801b03909216928216911684565b6000546001600160a01b031681565b6040805160a08101825260025481526001600160801b0383166020820152600081830181905260608201819052426080830152805492517f0c49ccbe00000000000000000000000000000000000000000000000000000000815290928392916001600160a01b0390911690630c49ccbe90610970908490600401611577565b6040805180830381600087803b15801561098957600080fd5b505af115801561099d573d6000803e3d6000fd5b505050506040513d601f19601f820116820180604052508101906109c191906113a0565b6040805180820190915260088152670616d6f756e7420360c41b602082015291945092506109ef90846110f3565b610a1960405180604001604052806008815260200167616d6f756e74203160c01b815250836110f3565b50915091565b736b175474e89094c44da98b954eedeac495271d0f81565b6000805460405163133f757160e31b8152829182916001600160a01b03909116906399fbab8890610a6c9087906004016116f1565b6101806040518083038186803b158015610a8557600080fd5b505afa158015610a99573d6000803e3d6000fd5b505050506040513d601f19601f82011682018060405250810190610abd91906113c3565b5050505097505050509450945050506040518060800160405280866001600160a01b03168152602001826001600160801b03168152602001846001600160a01b03168152602001836001600160a01b03168152506001600086815260200190815260200160002060008201518160000160006101000a8154816001600160a01b0302191690836001600160a01b0316021790555060208201518160010160006101000a8154816001600160801b0302191690836001600160801b0316021790555060408201518160020160006101000a8154816001600160a01b0302191690836001600160a01b0316021790555060608201518160030160006101000a8154816001600160a01b0302191690836001600160a01b03160217905550905050610c1a6040518060400160405280600881526020017f546f6b656e204964000000000000000000000000000000000000000000000000815250856110f3565b610c626040518060400160405280600981526020017f4c69717569646974790000000000000000000000000000000000000000000000815250826001600160801b03166110f3565b50505060025550565b604080516001600160a01b038481166024830152604480830185905283518084039091018152606490920183526020820180516001600160e01b03167f095ea7b3000000000000000000000000000000000000000000000000000000001781529251825160009485949389169392918291908083835b60208310610d005780518252601f199092019160209182019101610ce1565b6001836020036101000a0380198251168184511680821785525050505050509050019150506000604051808303816000865af19150503d8060008114610d62576040519150601f19603f3d011682016040523d82523d6000602084013e610d67565b606091505b5091509150818015610d95575080511580610d955750808060200190516020811015610d9257600080fd5b50515b610de6576040805162461bcd60e51b815260206004820152600260248201527f5341000000000000000000000000000000000000000000000000000000000000604482015290519081900360640190fd5b5050505050565b604080516001600160a01b038481166024830152604480830185905283518084039091018152606490920183526020820180516001600160e01b03167fa9059cbb000000000000000000000000000000000000000000000000000000001781529251825160009485949389169392918291908083835b60208310610e825780518252601f199092019160209182019101610e63565b6001836020036101000a0380198251168184511680821785525050505050509050019150506000604051808303816000865af19150503d8060008114610ee4576040519150601f19603f3d011682016040523d82523d6000602084013e610ee9565b606091505b5091509150818015610f17575080511580610f175750808060200190516020811015610f1457600080fd5b50515b610de6576040805162461bcd60e51b815260206004820152600260248201527f5354000000000000000000000000000000000000000000000000000000000000604482015290519081900360640190fd5b604080516001600160a01b0385811660248301528481166044830152606480830185905283518084039091018152608490920183526020820180516001600160e01b03167f23b872dd00000000000000000000000000000000000000000000000000000000178152925182516000948594938a169392918291908083835b602083106110055780518252601f199092019160209182019101610fe6565b6001836020036101000a0380198251168184511680821785525050505050509050019150506000604051808303816000865af19150503d8060008114611067576040519150601f19603f3d011682016040523d82523d6000602084013e61106c565b606091505b509150915081801561109a57508051158061109a575080806020019051602081101561109757600080fd5b50515b6110eb576040805162461bcd60e51b815260206004820152600360248201527f5354460000000000000000000000000000000000000000000000000000000000604482015290519081900360640190fd5b505050505050565b6111ba82826040516024018080602001838152602001828103825284818151815260200191508051906020019080838360005b8381101561113e578181015183820152602001611126565b50505050905090810190601f16801561116b5780820380516001836020036101000a031916815260200191505b5060408051601f198184030181529190526020810180516001600160e01b03167fb60e72cc0000000000000000000000000000000000000000000000000000000017905293506111be92505050565b5050565b6111d5816111cd6111d86111f9565b63ffffffff16565b50565b60006a636f6e736f6c652e6c6f679050600080835160208501845afa505050565b90565b805161089c8161172c565b8051600281900b811461089c57600080fd5b805161089c81611741565b805162ffffff8116811461089c57600080fd5b60008060008060006080868803121561124e578081fd5b85356112598161172c565b945060208601356112698161172c565b935060408601359250606086013567ffffffffffffffff8082111561128c578283fd5b818801915088601f83011261129f578283fd5b8135818111156112ad578384fd5b8960208285010111156112be578384fd5b9699959850939650602001949392505050565b6000602082840312156112e2578081fd5b81356112ed81611741565b9392505050565b600080600060608486031215611308578283fd5b835161131381611741565b602085015160409095015190969495509392505050565b60006020828403121561133b578081fd5b5035919050565b60008060008060808587031215611357578384fd5b84519350602085015161136981611741565b6040860151606090960151949790965092505050565b60008060408385031215611391578182fd5b50508035926020909101359150565b600080604083850312156113b2578182fd5b505080516020909101519092909150565b6000806000806000806000806000806000806101808d8f0312156113e5578687fd5b8c516bffffffffffffffffffffffff81168114611400578788fd5b9b5061140e60208e016111fc565b9a5061141c60408e016111fc565b995061142a60608e016111fc565b985061143860808e01611224565b975061144660a08e01611207565b965061145460c08e01611207565b955061146260e08e01611219565b94506101008d015193506101208d015192506114816101408e01611219565b91506114906101608e01611219565b90509295989b509295989b509295989b565b6001600160a01b03169052565b60020b9052565b62ffffff169052565b6001600160a01b0391909116815260200190565b6001600160a01b0394851681526001600160801b039390931660208401529083166040830152909116606082015260800190565b7fffffffff0000000000000000000000000000000000000000000000000000000091909116815260200190565b815181526020808301516001600160a01b0316908201526040808301516001600160801b0390811691830191909152606092830151169181019190915260800190565b600060a082019050825182526001600160801b03602084015116602083015260408301516040830152606083015160608301526080830151608083015292915050565b600060c082019050825182526020830151602083015260408301516040830152606083015160608301526080830151608083015260a083015160a083015292915050565b6000610160820190506116128284516114a2565b602083015161162460208401826114a2565b50604083015161163760408401826114b6565b50606083015161164a60608401826114af565b50608083015161165d60808401826114af565b5060a083015160a083015260c083015160c083015260e083015160e08301526101008084015181840152506101208084015161169b828501826114a2565b505061014092830151919092015290565b6001600160801b0391909116815260200190565b6001600160801b039390931683526020830191909152604082015260600190565b62ffffff91909116815260200190565b90815260200190565b9384526001600160801b039290921660208401526040830152606082015260800190565b918252602082015260400190565b6001600160a01b03811681146111d557600080fd5b6001600160801b03811681146111d557600080fdfea264697066735822122068f07c1630c479c2abdf54c41da576d72af7011cc543a9e64d961d332dac1e4d64736f6c63430007060033",
  "devdoc": {
    "kind": "dev",
    "methods": {},
    "stateVariables": {
      "deposits": {
        "details": "deposits[tokenId]=>Deposit"
      }
    },
    "version": 1
  },
  "userdoc": {
    "kind": "user",
    "methods": {
      "poolFee()": {
        "notice": "Defining the fee to charge when someone swaps"
      }
    },
    "version": 1
  },
  "storageLayout": {
    "storage": [
      {
        "astId": 4145,
        "contract": "contracts/Liquidity.sol:Liquidity",
        "label": "nonfungiblePositionManager",
        "offset": 0,
        "slot": "0",
        "type": "t_contract(INonfungiblePositionManager)3229"
      },
      {
        "astId": 4159,
        "contract": "contracts/Liquidity.sol:Liquidity",
        "label": "deposits",
        "offset": 0,
        "slot": "1",
        "type": "t_mapping(t_uint256,t_struct(Deposit)4154_storage)"
      },
      {
        "astId": 4161,
        "contract": "contracts/Liquidity.sol:Liquidity",
        "label": "tokenId",
        "offset": 0,
        "slot": "2",
        "type": "t_uint256"
      }
    ],
    "types": {
      "t_address": {
        "encoding": "inplace",
        "label": "address",
        "numberOfBytes": "20"
      },
      "t_contract(INonfungiblePositionManager)3229": {
        "encoding": "inplace",
        "label": "contract INonfungiblePositionManager",
        "numberOfBytes": "20"
      },
      "t_mapping(t_uint256,t_struct(Deposit)4154_storage)": {
        "encoding": "mapping",
        "key": "t_uint256",
        "label": "mapping(uint256 => struct Liquidity.Deposit)",
        "numberOfBytes": "32",
        "value": "t_struct(Deposit)4154_storage"
      },
      "t_struct(Deposit)4154_storage": {
        "encoding": "inplace",
        "label": "struct Liquidity.Deposit",
        "members": [
          {
            "astId": 4147,
            "contract": "contracts/Liquidity.sol:Liquidity",
            "label": "owner",
            "offset": 0,
            "slot": "0",
            "type": "t_address"
          },
          {
            "astId": 4149,
            "contract": "contracts/Liquidity.sol:Liquidity",
            "label": "liquidity",
            "offset": 0,
            "slot": "1",
            "type": "t_uint128"
          },
          {
            "astId": 4151,
            "contract": "contracts/Liquidity.sol:Liquidity",
            "label": "token0",
            "offset": 0,
            "slot": "2",
            "type": "t_address"
          },
          {
            "astId": 4153,
            "contract": "contracts/Liquidity.sol:Liquidity",
            "label": "token1",
            "offset": 0,
            "slot": "3",
            "type": "t_address"
          }
        ],
        "numberOfBytes": "128"
      },
      "t_uint128": {
        "encoding": "inplace",
        "label": "uint128",
        "numberOfBytes": "16"
      },
      "t_uint256": {
        "encoding": "inplace",
        "label": "uint256",
        "numberOfBytes": "32"
      }
    }
  }
}