{
  "address": "0x05bB67cB592C1753425192bF8f34b95ca8649f09",
  "abi": [
    {
      "inputs": [
        {
          "internalType": "address",
          "name": "token1",
          "type": "address"
        },
        {
          "internalType": "address",
          "name": "token2",
          "type": "address"
        },
        {
          "internalType": "uint256",
          "name": "amountIn",
          "type": "uint256"
        }
      ],
      "name": "swapExactInputSingle",
      "outputs": [
        {
          "internalType": "uint256",
          "name": "amountOut",
          "type": "uint256"
        }
      ],
      "stateMutability": "nonpayable",
      "type": "function"
    },
    {
      "inputs": [
        {
          "internalType": "address",
          "name": "token1",
          "type": "address"
        },
        {
          "internalType": "address",
          "name": "token2",
          "type": "address"
        },
        {
          "internalType": "uint256",
          "name": "amountOut",
          "type": "uint256"
        },
        {
          "internalType": "uint256",
          "name": "amountInMaximum",
          "type": "uint256"
        }
      ],
      "name": "swapExactOutputSingle",
      "outputs": [
        {
          "internalType": "uint256",
          "name": "amountIn",
          "type": "uint256"
        }
      ],
      "stateMutability": "nonpayable",
      "type": "function"
    },
    {
      "inputs": [],
      "name": "swapRouter",
      "outputs": [
        {
          "internalType": "contract ISwapRouter",
          "name": "",
          "type": "address"
        }
      ],
      "stateMutability": "view",
      "type": "function"
    }
  ],
  "transactionHash": "0x8313f2a53890c08482e6e916ea8805acac75078b5367fab853f538c63be81e0b",
  "args": [],
  "numDeployments": 1,
  "solcInputHash": "18368dee261a46a94cdbf9bc79e23877",
  "bytecode": "0x6080604052600080546001600160a01b03191673e592427a0aece92de3edee1f18e0157c0586156417905534801561003657600080fd5b506108ec806100466000396000f3fe608060405234801561001057600080fd5b50600436106100415760003560e01c8063bc96faa914610046578063c31c9c071461006f578063ceb9201214610084575b600080fd5b6100596100543660046107c7565b610097565b60405161006691906108ad565b60405180910390f35b6100776101d0565b6040516100669190610884565b61005961009236600461078c565b6101df565b60006100a5853330856102e8565b6000546100bd9086906001600160a01b031684610473565b60408051610100810182526001600160a01b0380881682528681166020830152610bb88284015233606083015242608083015260a0820186905260c08201859052600060e083018190525492517fdb3e21980000000000000000000000000000000000000000000000000000000081529192169063db3e219890610145908490600401610898565b602060405180830381600087803b15801561015f57600080fd5b505af1158015610173573d6000803e3d6000fd5b505050506040513d601f19601f820116820180604052508101906101979190610808565b9150828210156101c757600080546101ba9188916001600160a01b031690610473565b6101c786338486036105f5565b50949350505050565b6000546001600160a01b031681565b60006101ed843330856102e8565b6000546102059085906001600160a01b031684610473565b60408051610100810182526001600160a01b0380871682528581166020830152610bb88284015233606083015242608083015260a08201859052600060c0830181905260e083018190525492517f414bf3890000000000000000000000000000000000000000000000000000000081529192169063414bf3899061028d908490600401610898565b602060405180830381600087803b1580156102a757600080fd5b505af11580156102bb573d6000803e3d6000fd5b505050506040513d601f19601f820116820180604052508101906102df9190610808565b95945050505050565b604080516001600160a01b0385811660248301528481166044830152606480830185905283518084039091018152608490920183526020820180516001600160e01b03167f23b872dd00000000000000000000000000000000000000000000000000000000178152925182516000948594938a169392918291908083835b602083106103855780518252601f199092019160209182019101610366565b6001836020036101000a0380198251168184511680821785525050505050509050019150506000604051808303816000865af19150503d80600081146103e7576040519150601f19603f3d011682016040523d82523d6000602084013e6103ec565b606091505b509150915081801561041a57508051158061041a575080806020019051602081101561041757600080fd5b50515b61046b576040805162461bcd60e51b815260206004820152600360248201527f5354460000000000000000000000000000000000000000000000000000000000604482015290519081900360640190fd5b505050505050565b604080516001600160a01b038481166024830152604480830185905283518084039091018152606490920183526020820180516001600160e01b03167f095ea7b3000000000000000000000000000000000000000000000000000000001781529251825160009485949389169392918291908083835b602083106105085780518252601f1990920191602091820191016104e9565b6001836020036101000a0380198251168184511680821785525050505050509050019150506000604051808303816000865af19150503d806000811461056a576040519150601f19603f3d011682016040523d82523d6000602084013e61056f565b606091505b509150915081801561059d57508051158061059d575080806020019051602081101561059a57600080fd5b50515b6105ee576040805162461bcd60e51b815260206004820152600260248201527f5341000000000000000000000000000000000000000000000000000000000000604482015290519081900360640190fd5b5050505050565b604080516001600160a01b038481166024830152604480830185905283518084039091018152606490920183526020820180516001600160e01b03167fa9059cbb000000000000000000000000000000000000000000000000000000001781529251825160009485949389169392918291908083835b6020831061068a5780518252601f19909201916020918201910161066b565b6001836020036101000a0380198251168184511680821785525050505050509050019150506000604051808303816000865af19150503d80600081146106ec576040519150601f19603f3d011682016040523d82523d6000602084013e6106f1565b606091505b509150915081801561071f57508051158061071f575080806020019051602081101561071c57600080fd5b50515b6105ee576040805162461bcd60e51b815260206004820152600260248201527f5354000000000000000000000000000000000000000000000000000000000000604482015290519081900360640190fd5b80356001600160a01b038116811461078757600080fd5b919050565b6000806000606084860312156107a0578283fd5b6107a984610770565b92506107b760208501610770565b9150604084013590509250925092565b600080600080608085870312156107dc578081fd5b6107e585610770565b93506107f360208601610770565b93969395505050506040820135916060013590565b600060208284031215610819578081fd5b5051919050565b6001600160a01b0380825116835280602083015116602084015262ffffff60408301511660408401528060608301511660608401526080820151608084015260a082015160a084015260c082015160c08401528060e08301511660e0840152505050565b6001600160a01b0391909116815260200190565b61010081016108a78284610820565b92915050565b9081526020019056fea2646970667358221220502192682680ab0b4491362d5106bb6e435e3d26f7a593ff768565ac6a7026d364736f6c63430007060033",
  "devdoc": {
    "kind": "dev",
    "methods": {},
    "version": 1
  },
  "userdoc": {
    "kind": "user",
    "methods": {},
    "version": 1
  },
  "storageLayout": {
    "storage": [
      {
        "astId": 4903,
        "contract": "contracts/SwapToken.sol:SingleSwapToken",
        "label": "swapRouter",
        "offset": 0,
        "slot": "0",
        "type": "t_contract(ISwapRouter)3386"
      }
    ],
    "types": {
      "t_contract(ISwapRouter)3386": {
        "encoding": "inplace",
        "label": "contract ISwapRouter",
        "numberOfBytes": "20"
      }
    }
  }
}