{
  "address": "0x38628490c3043E5D0bbB26d5a0a62fC77342e9d5",
  "abi": [
    {
      "inputs": [],
      "name": "DAI",
      "outputs": [
        {
          "internalType": "address",
          "name": "",
          "type": "address"
        }
      ],
      "stateMutability": "view",
      "type": "function"
    },
    {
      "inputs": [],
      "name": "USDC",
      "outputs": [
        {
          "internalType": "address",
          "name": "",
          "type": "address"
        }
      ],
      "stateMutability": "view",
      "type": "function"
    },
    {
      "inputs": [],
      "name": "WETH9",
      "outputs": [
        {
          "internalType": "address",
          "name": "",
          "type": "address"
        }
      ],
      "stateMutability": "view",
      "type": "function"
    },
    {
      "inputs": [
        {
          "internalType": "uint256",
          "name": "amountIn",
          "type": "uint256"
        }
      ],
      "name": "swapExactInputMultiHop",
      "outputs": [
        {
          "internalType": "uint256",
          "name": "amountOut",
          "type": "uint256"
        }
      ],
      "stateMutability": "nonpayable",
      "type": "function"
    },
    {
      "inputs": [
        {
          "internalType": "uint256",
          "name": "amountOut",
          "type": "uint256"
        },
        {
          "internalType": "uint256",
          "name": "amountInMaximum",
          "type": "uint256"
        }
      ],
      "name": "swapExactOutputMultiHop",
      "outputs": [
        {
          "internalType": "uint256",
          "name": "amountIn",
          "type": "uint256"
        }
      ],
      "stateMutability": "nonpayable",
      "type": "function"
    },
    {
      "inputs": [],
      "name": "swapRouter",
      "outputs": [
        {
          "internalType": "contract ISwapRouter",
          "name": "",
          "type": "address"
        }
      ],
      "stateMutability": "view",
      "type": "function"
    }
  ],
  "transactionHash": "0xea4dced460f571566cbff6eb6aaa2bc6d653f6078f0fcb4c115f8375570a3682",
  "args": [],
  "numDeployments": 1,
  "solcInputHash": "18368dee261a46a94cdbf9bc79e23877",
  "bytecode": "0x6080604052600080546001600160a01b03191673e592427a0aece92de3edee1f18e0157c0586156417905534801561003657600080fd5b50610974806100466000396000f3fe608060405234801561001057600080fd5b50600436106100725760003560e01c8063c31c9c0711610050578063c31c9c07146100bd578063d05d4cdd146100c5578063e0bab4c4146100d857610072565b80634aa4a4fc1461007757806357688eda1461009557806389a30271146100b5575b600080fd5b61007f6100e0565b60405161008c919061090e565b60405180910390f35b6100a86100a33660046107c0565b6100f8565b60405161008c9190610935565b61007f610275565b61007f61028d565b6100a86100d33660046107f0565b61029c565b61007f610471565b73c02aaa39b223fe8d0a0e5c4f27ead9083c756cc281565b600061011a73c02aaa39b223fe8d0a0e5c4f27ead9083c756cc2333085610489565b6000546101469073c02aaa39b223fe8d0a0e5c4f27ead9083c756cc2906001600160a01b031684610629565b6040805160a08101909152600090806101a573c02aaa39b223fe8d0a0e5c4f27ead9083c756cc2610bb873a0b86991c6218b36c1d19d4a2e9eb0ce3606eb486064736b175474e89094c44da98b954eedeac495271d0f60c087016108a4565b60408051601f1981840301815291815290825233602083015242828201526060820186905260006080909201829052905490517fc04b8d590000000000000000000000000000000000000000000000000000000081529192506001600160a01b03169063c04b8d599061021c908490600401610922565b602060405180830381600087803b15801561023657600080fd5b505af115801561024a573d6000803e3d6000fd5b505050506040513d601f19601f8201168201806040525081019061026e91906107d8565b9392505050565b73a0b86991c6218b36c1d19d4a2e9eb0ce3606eb4881565b6000546001600160a01b031681565b60006102be73c02aaa39b223fe8d0a0e5c4f27ead9083c756cc2333085610489565b6000546102ea9073c02aaa39b223fe8d0a0e5c4f27ead9083c756cc2906001600160a01b031684610629565b6040805160a0810190915260009080610349736b175474e89094c44da98b954eedeac495271d0f606473a0b86991c6218b36c1d19d4a2e9eb0ce3606eb48610bb873c02aaa39b223fe8d0a0e5c4f27ead9083c756cc260c087016108a4565b60408051601f19818403018152918152908252336020830152428282015260608201879052608090910185905260005490517ff28c04980000000000000000000000000000000000000000000000000000000081529192506001600160a01b03169063f28c0498906103bf908490600401610922565b602060405180830381600087803b1580156103d957600080fd5b505af11580156103ed573d6000803e3d6000fd5b505050506040513d601f19601f8201168201806040525081019061041191906107d8565b91508282101561046a57600080546104489173c02aaa39b223fe8d0a0e5c4f27ead9083c756cc2916001600160a01b031690610629565b61046a73c02aaa39b223fe8d0a0e5c4f27ead9083c756cc23033858703610489565b5092915050565b736b175474e89094c44da98b954eedeac495271d0f81565b604080516001600160a01b0385811660248301528481166044830152606480830185905283518084039091018152608490920183526020820180517bffffffffffffffffffffffffffffffffffffffffffffffffffffffff167f23b872dd00000000000000000000000000000000000000000000000000000000178152925182516000948594938a169392918291908083835b6020831061053b5780518252601f19909201916020918201910161051c565b6001836020036101000a0380198251168184511680821785525050505050509050019150506000604051808303816000865af19150503d806000811461059d576040519150601f19603f3d011682016040523d82523d6000602084013e6105a2565b606091505b50915091508180156105d05750805115806105d057508080602001905160208110156105cd57600080fd5b50515b610621576040805162461bcd60e51b815260206004820152600360248201527f5354460000000000000000000000000000000000000000000000000000000000604482015290519081900360640190fd5b505050505050565b604080516001600160a01b038481166024830152604480830185905283518084039091018152606490920183526020820180517bffffffffffffffffffffffffffffffffffffffffffffffffffffffff167f095ea7b3000000000000000000000000000000000000000000000000000000001781529251825160009485949389169392918291908083835b602083106106d35780518252601f1990920191602091820191016106b4565b6001836020036101000a0380198251168184511680821785525050505050509050019150506000604051808303816000865af19150503d8060008114610735576040519150601f19603f3d011682016040523d82523d6000602084013e61073a565b606091505b5091509150818015610768575080511580610768575080806020019051602081101561076557600080fd5b50515b6107b9576040805162461bcd60e51b815260206004820152600260248201527f5341000000000000000000000000000000000000000000000000000000000000604482015290519081900360640190fd5b5050505050565b6000602082840312156107d1578081fd5b5035919050565b6000602082840312156107e9578081fd5b5051919050565b60008060408385031215610802578081fd5b50508035926020909101359150565b6001600160a01b03169052565b6000815160a0845280518060a0860152825b8181101561084d57602081840181015160c0888401015201610830565b8181111561085e578360c083880101525b50602084015191506108736020860183610811565b6040848101519086015260608085015190860152608093840151938501939093525050601f01601f19160160c00190565b6bffffffffffffffffffffffff19606096871b811682527fffffff000000000000000000000000000000000000000000000000000000000060e896871b8116601484015294871b811660178301529290941b909216602b840152921b909116602e82015260420190565b6001600160a01b0391909116815260200190565b60006020825261026e602083018461081e565b9081526020019056fea264697066735822122049af57bb6013e2c7c31cafcc9b69fff44b051278d856a1d404793209ef1c3ec864736f6c63430007060033",
  "devdoc": {
    "kind": "dev",
    "methods": {},
    "version": 1
  },
  "userdoc": {
    "kind": "user",
    "methods": {},
    "version": 1
  },
  "storageLayout": {
    "storage": [
      {
        "astId": 4716,
        "contract": "contracts/SwapMultiHop.sol:SwapMultiHop",
        "label": "swapRouter",
        "offset": 0,
        "slot": "0",
        "type": "t_contract(ISwapRouter)3386"
      }
    ],
    "types": {
      "t_contract(ISwapRouter)3386": {
        "encoding": "inplace",
        "label": "contract ISwapRouter",
        "numberOfBytes": "20"
      }
    }
  }
}