{
  "_format": "hh-sol-artifact-1",
  "contractName": "SwapMultiHop",
  "sourceName": "contracts/SwapMultiHop.sol",
  "abi": [
    {
      "inputs": [],
      "name": "DAI",
      "outputs": [
        {
          "internalType": "address",
          "name": "",
          "type": "address"
        }
      ],
      "stateMutability": "view",
      "type": "function"
    },
    {
      "inputs": [],
      "name": "USDC",
      "outputs": [
        {
          "internalType": "address",
          "name": "",
          "type": "address"
        }
      ],
      "stateMutability": "view",
      "type": "function"
    },
    {
      "inputs": [],
      "name": "WETH9",
      "outputs": [
        {
          "internalType": "address",
          "name": "",
          "type": "address"
        }
      ],
      "stateMutability": "view",
      "type": "function"
    },
    {
      "inputs": [
        {
          "internalType": "uint256",
          "name": "amountIn",
          "type": "uint256"
        }
      ],
      "name": "swapExactInputMultiHop",
      "outputs": [
        {
          "internalType": "uint256",
          "name": "amountOut",
          "type": "uint256"
        }
      ],
      "stateMutability": "nonpayable",
      "type": "function"
    },
    {
      "inputs": [
        {
          "internalType": "uint256",
          "name": "amountOut",
          "type": "uint256"
        },
        {
          "internalType": "uint256",
          "name": "amountInMaximum",
          "type": "uint256"
        }
      ],
      "name": "swapExactOutputMultiHop",
      "outputs": [
        {
          "internalType": "uint256",
          "name": "amountIn",
          "type": "uint256"
        }
      ],
      "stateMutability": "nonpayable",
      "type": "function"
    },
    {
      "inputs": [],
      "name": "swapRouter",
      "outputs": [
        {
          "internalType": "contract ISwapRouter",
          "name": "",
          "type": "address"
        }
      ],
      "stateMutability": "view",
      "type": "function"
    }
  ],
  "bytecode": "0x608060405273e592427a0aece92de3edee1f18e0157c058615646000806101000a81548173ffffffffffffffffffffffffffffffffffffffff021916908373ffffffffffffffffffffffffffffffffffffffff16021790555034801561006457600080fd5b50610f74806100746000396000f3fe608060405234801561001057600080fd5b50600436106100625760003560e01c80634aa4a4fc1461006757806357688eda1461008557806389a30271146100b5578063c31c9c07146100d3578063d05d4cdd146100f1578063e0bab4c414610121575b600080fd5b61006f61013f565b60405161007c9190610867565b60405180910390f35b61009f600480360381019061009a91906108bd565b610157565b6040516100ac91906108f9565b60405180910390f35b6100bd610304565b6040516100ca9190610867565b60405180910390f35b6100db61031c565b6040516100e89190610973565b60405180910390f35b61010b6004803603810190610106919061098e565b610340565b60405161011891906108f9565b60405180910390f35b610129610561565b6040516101369190610867565b60405180910390f35b73c02aaa39b223fe8d0a0e5c4f27ead9083c756cc281565b600061017973c02aaa39b223fe8d0a0e5c4f27ead9083c756cc2333085610579565b6101b873c02aaa39b223fe8d0a0e5c4f27ead9083c756cc260008054906101000a900473ffffffffffffffffffffffffffffffffffffffff16846106d1565b60006040518060a0016040528073c02aaa39b223fe8d0a0e5c4f27ead9083c756cc2610bb873a0b86991c6218b36c1d19d4a2e9eb0ce3606eb486064736b175474e89094c44da98b954eedeac495271d0f60405160200161021d959493929190610a5b565b60405160208183030381529060405281526020013373ffffffffffffffffffffffffffffffffffffffff1681526020014281526020018481526020016000815250905060008054906101000a900473ffffffffffffffffffffffffffffffffffffffff1673ffffffffffffffffffffffffffffffffffffffff1663c04b8d59826040518263ffffffff1660e01b81526004016102b99190610bde565b6020604051808303816000875af11580156102d8573d6000803e3d6000fd5b505050506040513d601f19601f820116820180604052508101906102fc9190610c15565b915050919050565b73a0b86991c6218b36c1d19d4a2e9eb0ce3606eb4881565b60008054906101000a900473ffffffffffffffffffffffffffffffffffffffff1681565b600061036273c02aaa39b223fe8d0a0e5c4f27ead9083c756cc2333085610579565b6103a173c02aaa39b223fe8d0a0e5c4f27ead9083c756cc260008054906101000a900473ffffffffffffffffffffffffffffffffffffffff16846106d1565b60006040518060a00160405280736b175474e89094c44da98b954eedeac495271d0f606473a0b86991c6218b36c1d19d4a2e9eb0ce3606eb48610bb873c02aaa39b223fe8d0a0e5c4f27ead9083c756cc2604051602001610406959493929190610a5b565b60405160208183030381529060405281526020013373ffffffffffffffffffffffffffffffffffffffff16815260200142815260200185815260200184815250905060008054906101000a900473ffffffffffffffffffffffffffffffffffffffff1673ffffffffffffffffffffffffffffffffffffffff1663f28c0498826040518263ffffffff1660e01b81526004016104a19190610cb8565b6020604051808303816000875af11580156104c0573d6000803e3d6000fd5b505050506040513d601f19601f820116820180604052508101906104e49190610c15565b91508282101561055a5761052e73c02aaa39b223fe8d0a0e5c4f27ead9083c756cc260008054906101000a900473ffffffffffffffffffffffffffffffffffffffff1660006106d1565b61055973c02aaa39b223fe8d0a0e5c4f27ead9083c756cc2303385876105549190610d09565b610579565b5b5092915050565b736b175474e89094c44da98b954eedeac495271d0f81565b6000808573ffffffffffffffffffffffffffffffffffffffff166323b872dd60e01b8686866040516024016105b093929190610d3d565b604051602081830303815290604052907bffffffffffffffffffffffffffffffffffffffffffffffffffffffff19166020820180517bffffffffffffffffffffffffffffffffffffffffffffffffffffffff838183161783525050505060405161061a9190610db0565b6000604051808303816000865af19150503d8060008114610657576040519150601f19603f3d011682016040523d82523d6000602084013e61065c565b606091505b509150915081801561068a57506000815114806106895750808060200190518101906106889190610dff565b5b5b6106c9576040517f08c379a00000000000000000000000000000000000000000000000000000000081526004016106c090610e89565b60405180910390fd5b505050505050565b6000808473ffffffffffffffffffffffffffffffffffffffff1663095ea7b360e01b8585604051602401610706929190610ea9565b604051602081830303815290604052907bffffffffffffffffffffffffffffffffffffffffffffffffffffffff19166020820180517bffffffffffffffffffffffffffffffffffffffffffffffffffffffff83818316178352505050506040516107709190610db0565b6000604051808303816000865af19150503d80600081146107ad576040519150601f19603f3d011682016040523d82523d6000602084013e6107b2565b606091505b50915091508180156107e057506000815114806107df5750808060200190518101906107de9190610dff565b5b5b61081f576040517f08c379a000000000000000000000000000000000000000000000000000000000815260040161081690610f1e565b60405180910390fd5b5050505050565b600073ffffffffffffffffffffffffffffffffffffffff82169050919050565b600061085182610826565b9050919050565b61086181610846565b82525050565b600060208201905061087c6000830184610858565b92915050565b600080fd5b6000819050919050565b61089a81610887565b81146108a557600080fd5b50565b6000813590506108b781610891565b92915050565b6000602082840312156108d3576108d2610882565b5b60006108e1848285016108a8565b91505092915050565b6108f381610887565b82525050565b600060208201905061090e60008301846108ea565b92915050565b6000819050919050565b600061093961093461092f84610826565b610914565b610826565b9050919050565b600061094b8261091e565b9050919050565b600061095d82610940565b9050919050565b61096d81610952565b82525050565b60006020820190506109886000830184610964565b92915050565b600080604083850312156109a5576109a4610882565b5b60006109b3858286016108a8565b92505060206109c4858286016108a8565b9150509250929050565b60008160601b9050919050565b60006109e6826109ce565b9050919050565b60006109f8826109db565b9050919050565b610a10610a0b82610846565b6109ed565b82525050565b600062ffffff82169050919050565b60008160e81b9050919050565b6000610a3d82610a25565b9050919050565b610a55610a5082610a16565b610a32565b82525050565b6000610a6782886109ff565b601482019150610a778287610a44565b600382019150610a8782866109ff565b601482019150610a978285610a44565b600382019150610aa782846109ff565b6014820191508190509695505050505050565b600081519050919050565b600082825260208201905092915050565b60005b83811015610af4578082015181840152602081019050610ad9565b60008484015250505050565b6000601f19601f8301169050919050565b6000610b1c82610aba565b610b268185610ac5565b9350610b36818560208601610ad6565b610b3f81610b00565b840191505092915050565b610b5381610846565b82525050565b610b6281610887565b82525050565b600060a0830160008301518482036000860152610b858282610b11565b9150506020830151610b9a6020860182610b4a565b506040830151610bad6040860182610b59565b506060830151610bc06060860182610b59565b506080830151610bd36080860182610b59565b508091505092915050565b60006020820190508181036000830152610bf88184610b68565b905092915050565b600081519050610c0f81610891565b92915050565b600060208284031215610c2b57610c2a610882565b5b6000610c3984828501610c00565b91505092915050565b600060a0830160008301518482036000860152610c5f8282610b11565b9150506020830151610c746020860182610b4a565b506040830151610c876040860182610b59565b506060830151610c9a6060860182610b59565b506080830151610cad6080860182610b59565b508091505092915050565b60006020820190508181036000830152610cd28184610c42565b905092915050565b7f4e487b7100000000000000000000000000000000000000000000000000000000600052601160045260246000fd5b6000610d1482610887565b9150610d1f83610887565b9250828203905081811115610d3757610d36610cda565b5b92915050565b6000606082019050610d526000830186610858565b610d5f6020830185610858565b610d6c60408301846108ea565b949350505050565b600081905092915050565b6000610d8a82610aba565b610d948185610d74565b9350610da4818560208601610ad6565b80840191505092915050565b6000610dbc8284610d7f565b915081905092915050565b60008115159050919050565b610ddc81610dc7565b8114610de757600080fd5b50565b600081519050610df981610dd3565b92915050565b600060208284031215610e1557610e14610882565b5b6000610e2384828501610dea565b91505092915050565b600082825260208201905092915050565b7f5354460000000000000000000000000000000000000000000000000000000000600082015250565b6000610e73600383610e2c565b9150610e7e82610e3d565b602082019050919050565b60006020820190508181036000830152610ea281610e66565b9050919050565b6000604082019050610ebe6000830185610858565b610ecb60208301846108ea565b9392505050565b7f5341000000000000000000000000000000000000000000000000000000000000600082015250565b6000610f08600283610e2c565b9150610f1382610ed2565b602082019050919050565b60006020820190508181036000830152610f3781610efb565b905091905056fea2646970667358221220d08115935ad8735f7762ecc5e03a91e335b17b24f4292e3f6dc7a3d1285527ca64736f6c63430008120033",
  "linkReferences": {},
  "deployedLinkReferences": {}
}